:020000040800F2
:1000000000C00020310A0008D1A50008DFA50008C3
:10001000E5A50008EBA50008F1A500080000000018
:10002000000000000000000000000000F7A500082C
:1000300005A600080000000013A6000821A600087D
:10004000810A0008810A0008810A0008810A000864
:10005000810A0008810A000831A60008810A000808
:10006000810A00083FA60008810A0008810A0008EA
:10007000810A00084DA60008810A0008810A0008CC
:10008000810A0008810A0008810A0008810A000824
:10009000810A0008810A0008810A000861A6000898
:1000A000810A0008810A0008810A0008810A000804
:1000B000810A00080000000000000000810A00081A
:1000C000810A0008810A0008810A0008810A0008E4
:1000D000810A0008810A0008810A0008810A0008D4
:1000E00085A60008810A000800000000000000004A
:1000F0000000000000000000000000000000000000
:1001000000000000810A000800000000810A0008C9
:100110000000000000000000A5A60008810A0008F9
:10012000810A0008810A0008810A0008810A000883
:10013000810A00080000000000000000000000002C
:10014000810A0008810A0008810A0008B9A600088F
:10015000810A0008810A0008810A0008810A000853
:10016000810A0008810A0008810A000800000000D6
:10017000810A0008810A0008810A000800000000C6
:10018000810A0008810A0008810A000800000000B6
:1001900010B5054C237833B9044B13B10448AFF3C1
:1001A00000800123237010BD4004002000000000E7
:1001B0001CB400080C4B43B10C480D4910B5AFF30B
:1001C00000800C48036823B910BD0A48036833B99E
:1001D0007047094B002BF7D0BDE810401847064B7D
:1001E000002BF5D0184700BF000000001CB4000829
:1001F00044040020400400200000000081F0004181
:1002000002E000BF83F0004330B54FEA41044FEAFB
:10021000430594EA050F08BF90EA020F1FBF54EA96
:10022000000C55EA020C7FEA645C7FEA655C00F032
:10023000E2804FEA5454D4EB5555B8BF6D420CDD03
:100240002C4480EA020281EA030382EA000083EA86
:10025000010180EA020281EA0303362D88BF30BD26
:1002600011F0004F4FEA01314FF4801C4CEA11317C
:1002700002D0404261EB410113F0004F4FEA0333DB
:100280004CEA133302D0524263EB430394EA050F66
:1002900000F0A780A4F10104D5F1200E0DDB02FAD5
:1002A0000EFC22FA05F2801841F1000103FA0EF269
:1002B000801843FA05F359410EE0A5F120050EF12F
:1002C000200E012A03FA0EFC28BF4CF0020C43FA60
:1002D00005F3C01851EBE37101F0004507D54FF06D
:1002E000000EDCF1000C7EEB00006EEB0101B1F5BD
:1002F000801F1BD3B1F5001F0CD349085FEA300003
:100300004FEA3C0C04F101044FEA445212F5800F0D
:1003100080F09A80BCF1004F08BF5FEA500C50F1AA
:10032000000041EB045141EA050130BD5FEA4C0C8D
:10033000404141EB010111F4801FA4F10104E9D116
:1003400091F0000F04BF01460020B1FA81F308BF0D
:100350002033A3F10B03B3F120020CDA0C3208DDD9
:1003600002F1140CC2F10C0201FA0CF021FA02F1B4
:100370000CE002F11402D8BFC2F1200C01FA02F124
:1003800020FA0CFCDCBF41EA0C019040E41AA2BF49
:1003900001EB0451294330BD6FEA04041F3C1CDA11
:1003A0000C340EDC04F11404C4F1200220FA04F031
:1003B00001FA02F340EA030021FA04F345EA0301DB
:1003C00030BDC4F10C04C4F1200220FA02F001FA9D
:1003D00004F340EA0300294630BD21FA04F029461F
:1003E00030BD94F0000F83F4801306BF81F48011B8
:1003F0000134013D4EE77FEA645C18BF7FEA655C2B
:1004000029D094EA050F08BF90EA020F05D054EAFC
:10041000000C04BF1946104630BD91EA030F1EBF01
:100420000021002030BD5FEA545C05D14000494105
:1004300028BF41F0004130BD14F580043CBF01F5F8
:10044000801130BD01F0004545F0FE4141F47001DE
:100450004FF0000030BD7FEA645C1ABF19461046B9
:100460007FEA655C1CBF0B46024650EA013406BFBA
:1004700052EA033591EA030F41F4002130BD00BF79
:1004800090F0000F04BF0021704730B54FF4806436
:1004900004F132044FF000054FF0000150E700BFB7
:1004A00090F0000F04BF0021704730B54FF4806416
:1004B00004F1320410F0004548BF40424FF0000103
:1004C0003EE700BF42004FEAE2014FEA31014FEA46
:1004D00002701FBF12F07F4393F07F4F81F0605195
:1004E000704792F0000F14BF93F07F4F704730B504
:1004F0004FF4607401F0004521F0004120E700BF97
:1005000050EA010208BF704730B54FF000050AE01D
:1005100050EA010208BF704730B511F0004502D51E
:10052000404261EB41014FF4806404F132045FEA20
:10053000915C3FF4DCAE4FF003025FEADC0C18BFC5
:1005400003325FEADC0C18BF033202EBDC02C2F1BB
:10055000200300FA03FC20FA02F001FA03FE40EA4D
:100560000E0021FA02F11444C1E600BF70B54FF04D
:10057000FF0C4CF4E06C1CEA11541DBF1CEA13552F
:1005800094EA0C0F95EA0C0F00F0DEF82C4481EA97
:10059000030621EA4C5123EA4C5350EA013518BFB7
:1005A00052EA033541F4801143F4801338D0A0FBA4
:1005B00002CE4FF00005E1FB02E506F00042E0FB51
:1005C00003E54FF00006E1FB03569CF0000F18BF57
:1005D0004EF0010EA4F1FF04B6F5007F64F54074FF
:1005E00004D25FEA4E0E6D4146EB060642EAC62192
:1005F00041EA55514FEAC52040EA5E504FEACE2EFF
:10060000B4F1FD0C88BFBCF5E06F1ED8BEF1004F01
:1006100008BF5FEA500E50F1000041EB045170BD7D
:1006200006F0004646EA010140EA020081EA0301C1
:10063000B4EB5C04C2BFD4EB0C0541EA045170BDBD
:1006400041F480114FF0000E013C00F3AB8014F137
:10065000360FDEBF002001F0004170BDC4F1000480
:10066000203C35DA0C341BDC04F11404C4F1200501
:1006700000FA05F320FA04F001FA05F240EA02005C
:1006800001F0004221F0004110EBD37021FA04F692
:1006900042EB06015EEA430E08BF20EAD37070BD4C
:1006A000C4F10C04C4F1200500FA04F320FA05F0AB
:1006B00001FA04F240EA020001F0004110EBD370AD
:1006C00041F100015EEA430E08BF20EAD37070BD1D
:1006D000C4F1200500FA05F24EEA020E20FA04F3F6
:1006E00001FA05F243EA020321FA04F001F00041A5
:1006F00021FA04F220EA020000EBD3705EEA430E16
:1007000008BF20EAD37070BD94F0000F0FD101F044
:100710000046400041EB010111F4801F08BF013C7D
:10072000F7D041EA060195F0000F18BF704703F0BB
:100730000046520043EB030313F4801F08BF013D42
:10074000F7D043EA0603704794EA0C0F0CEA1355FE
:1007500018BF95EA0C0F0CD050EA410618BF52EAB8
:100760004306D1D181EA030101F000414FF00000BE
:1007700070BD50EA410606BF1046194652EA4306CC
:1007800019D094EA0C0F02D150EA013613D195EA40
:100790000C0F05D152EA03361CBF104619460AD188
:1007A00081EA030101F0004141F0FE4141F4700192
:1007B0004FF0000070BD41F0FE4141F4780170BD82
:1007C00070B54FF0FF0C4CF4E06C1CEA11541DBFE7
:1007D0001CEA135594EA0C0F95EA0C0F00F0A7F8E9
:1007E000A4EB050481EA030E52EA03354FEA013116
:1007F00000F088804FEA03334FF0805545EA131329
:1008000043EA12634FEA022245EA111545EA1065F0
:100810004FEA00260EF000419D4208BF964244F187
:10082000FD0404F5407402D25B084FEA3202B61AA6
:1008300065EB03055B084FEA32024FF480104FF47A
:10084000002CB6EB020E75EB030E22BFB61A7546EE
:1008500040EA0C005B084FEA3202B6EB020E75EB81
:10086000030E22BFB61A754640EA5C005B084FEAE9
:100870003202B6EB020E75EB030E22BFB61A7546B6
:1008800040EA9C005B084FEA3202B6EB020E75EBC1
:10089000030E22BFB61A754640EADC0055EA060E82
:1008A00018D04FEA051545EA16754FEA06164FEAC5
:1008B000C30343EA52734FEAC2025FEA1C1CC0D171
:1008C00011F4801F0BD141EA00014FF000004FF0FE
:1008D000004CB6E711F4801F04BF01430020B4F1BF
:1008E000FD0C88BFBCF5E06F3FF6AFAEB5EB030C77
:1008F00004BFB6EB020C5FEA500C50F1000041EB74
:10090000045170BD0EF0004E4EEA113114EB5C0440
:10091000C2BFD4EB0C0541EA045170BD41F4801113
:100920004FF0000E013C90E645EA060E8DE60CEA1B
:10093000135594EA0C0F08BF95EA0C0F3FF43BAF38
:1009400094EA0C0F0AD150EA01347FF434AF95EAEF
:100950000C0F7FF425AF104619462CE795EA0C0FD3
:1009600006D152EA03353FF4FDAE1046194622E7A0
:1009700050EA410618BF52EA43067FF4C5AE50EA7A
:1009800041047FF40DAF52EA43057FF4EBAE12E76A
:100990004FEA4102B2F1E04324BFB3F5001CDCF1A1
:1009A000FE5C0DD901F0004C4FEAC0024CEA5070D9
:1009B000B2F1004F40EB830008BF20F00100704708
:1009C00011F0804F21D113F13872BCBF01F000400B
:1009D000704741F480114FEA5252C2F11802C2F13D
:1009E000200C10FA0CF320FA02F018BF40F00100BE
:1009F0004FEAC1234FEAD32303FA0CFC40EA0C0070
:100A000023FA02F34FEA4303CCE77FEA625307D1AC
:100A100050EA01331EBF4FF0FE4040F440007047E3
:100A200001F0004040F0FE4040F40000704700BF7D
:100A3000DFF834D0002103E00C4B5B584350043105
:100A40000B480C4B42189A42F6D30B4A02E00023A3
:100A500042F8043B094B9A42F9D309F037FE0AF0F9
:100A6000B1FC08F061FFFEE700C0002080C0000874
:100A7000000000204004002040040020780F0020E7
:100A8000FEE780B500AF032001F0A0F8002000F0E1
:100A900005F809F009FC0023184680BD80B582B036
:100AA00000AF7860094B1B68094AA2FB03239B092E
:100AB000184601F0C0F8002279684FF0FF3001F0CD
:100AC00090F8002318460837BD4680BD3C0400203E
:100AD000D34D621080B400AF044B1B680133034A4E
:100AE000136000BFBD465DF8047B704768040020BA
:100AF00080B400AF034B1B681846BD465DF8047B0D
:100B0000704700BF6804002080B584B000AF7860F3
:100B10000023FB60FFF7ECFFF86000BFFFF7E8FF82
:100B20000246FB68D21A7B689A42F7D300BF10379F
:100B3000BD4680BD80B590B000AF7860002387F8D7
:100B40003F300023BB630023BB607B68002B01D1D7
:100B5000012364E17B681B69002B7B689B6D002B84
:100B600009D1786809F0EEFB7B680022DA657B68C2
:100B7000002283F854207B681B689B6803F00053B5
:100B8000B3F1005F07D17B681B687A6812689268CE
:100B900022F000529A607B681B689B6803F08053C8
:100BA000002B19D17B681B687A681268926842F042
:100BB00080529A609C4B1B689C4AA2FB0323DA0C70
:100BC00013469B0013445B00BB6002E0BB68013B23
:100BD000BB60BB68002BF9D17B681B689B6803F086
:100BE0008053002B0ED17B689B6D43F010027B6815
:100BF0009A657B68DB6D43F001027B68DA6501234F
:100C000087F83F307B689B6D03F01003002B40F0AA
:100C1000FB807B681B689B6803F00403002B40F09B
:100C2000F3807B689B6D43F002027B689A65804B82
:100C30007B637B681B689B6803F00303012B08D16F
:100C40007B681B681B6803F00103012B01D10123A2
:100C500000E00023002B08D17B6B9B6823F47C12FF
:100C60007B685B681A437B6B9A607B68DA694FF438
:100C70000053BB62BB6A93FAA3F37B627B6AB3FA4D
:100C800083F39A407B689B6B1A437B68DB681A434B
:100C90007B689B681A437B68596A4FF480333B63D7
:100CA0003B6B93FAA3F3FB62FB6AB3FA83F301FA9B
:100CB00003F31343BB637B685B6A012B11D17B6831
:100CC0009B6A5A1E4FF460233B623B6A93FAA3F37C
:100CD000FB61FB69B3FA83F302FA03F3BA6B1343C4
:100CE000BB637B68DB6A012B0BD07B681B6B002B23
:100CF00007D07B68DA6A7B681B6B1343BA6B1343BC
:100D0000BB637B681A687B681B68D968494B0B40DA
:100D1000B96B0B43D3607B681B689B6803F00C03C3
:100D2000002B4FD17B689A694FF480433B613B694C
:100D300093FAA3F3FB60FB68B3FA83F39A407B68F2
:100D4000596B0223BB61BB6993FAA3F37B617B6997
:100D5000B3FA83F301FA03F31343BB637B681A68A6
:100D60007B681B68DB6823F4804323F00203B96BC4
:100D70000B43D3607B68DB6B012B1BD17B68DB6A89
:100D8000012B7B681A687B681B681B6923F4FF636F
:100D900023F005037968086C7968496C0843796821
:100DA000896C08437968C96C01430B4343F0010324
:100DB000136107E07B681B687A681268126922F089
:100DC00001021A617B681B69012B0CD17B681B68CF
:100DD0007A681268126B22F00F017A68126A013A7F
:100DE0000A431A6307E07B681B687A681268126B13
:100DF00022F00F021A637B689B6D23F0030343F01C
:100E000001027B689A6508E07B689B6D43F01002E5
:100E10007B689A65012387F83F3097F83F30184682
:100E20004037BD4680BD00BF3C04002083DE1B432D
:100E30000003045007C0F0FF80B584B000AF7860B5
:100E40000023FB737B681B689B6803F00403002B83
:100E500058D17B6893F85430012B01D1022354E020
:100E60007B68012283F85420786800F0B1FC0346C7
:100E7000FB73FB7B002B40D17B689B6D03F480539D
:100E8000B3F5805F06D17B68DB6D23F006027B68DB
:100E9000DA6502E07B680022DA657B689B6D23F4EB
:100EA000706323F0010343F480727B689A657B686A
:100EB0009B6D23F480127B689A657B681B681C22FB
:100EC0001A607B681B68DB6803F00073002B07D097
:100ED0007B689B6D23F4405343F480527B689A6592
:100EE0007B68002283F854207B681B687A6812684C
:100EF000926842F004029A6006E07B68002283F860
:100F0000542001E00223FB73FB7B18461037BD46DB
:100F100080BD80B586B000AF786039600023FB608B
:100F200000237B610023BB6001233B617B685B691D
:100F3000082B02D108237B6110E07B681B68DB680B
:100F400003F00103002B07D07B689B6D43F0200268
:100F50007B689A6501236DE004237B61FFF7C8FD80
:100F6000F8601AE03B68B3F1FF3F16D03B68002BF6
:100F700007D0FFF7BDFD0246FB68D21A3B689A42D4
:100F80000BD97B689B6D43F004027B689A657B6894
:100F9000002283F8542003234CE07B681B681A6806
:100FA0007B691340002BDDD07B681B681B6803F056
:100FB0000803002B01D100233B617B681B68DB68C1
:100FC000BB607B69082B04D17B681B6808221A6010
:100FD00008E0BB6803F48043002B03D17B681B68E7
:100FE00004221A607B689B6D43F400727B689A65EB
:100FF0003B69002B1DD07B681B68DB6803F44063F2
:10100000002B16D1BB6803F40053002B11D17B6871
:101010009B6D23F480727B689A657B689B6D03F4FB
:101020008053002B05D17B689B6D43F001027B68E8
:101030009A65002318461837BD4680BD80B483B03A
:1010400000AF78607B681B681B6C18460C37BD4688
:101050005DF8047B7047000090B4B6B000AF7860D4
:101060003960002387F8D7300023BB607B6893F892
:101070005430012B01D102239CE37B68012283F8C9
:1010800054207B681B689B6803F00403002B40F02E
:1010900080833B685B68042B36D87B681B687A6862
:1010A0001268116B4FF4F862C7F8C020D7F8C0205F
:1010B00092FAA2F2C7F8BC20D7F8BC20B2FA82F2AA
:1010C00010463A68526802FB00F21F2000FA02F252
:1010D000D24311403A6810684FF4F862C7F8C8204C
:1010E000D7F8C82092FAA2F2C7F8C420D7F8C420D3
:1010F000B2FA82F214463A68526802FB04F200FA2D
:1011000002F20A431A63B1E03B685B68092B38D8E6
:101110007B681B687A681268516B4FF4F862C7F8F5
:10112000B020D7F8B02092FAA2F2C7F8AC20D7F8D6
:10113000AC20B2FA82F210463A685268053A02FBD5
:1011400000F21F2000FA02F2D24311403A68106800
:101150004FF4F862C7F8B820D7F8B82092FAA2F294
:10116000C7F8B420D7F8B420B2FA82F214463A682D
:101170005268053A02FB04F200FA02F20A435A638B
:1011800074E03B685B680E2B38D87B681B687A6814
:101190001268916B4FF4F862C7F8A020D7F8A0202E
:1011A00092FAA2F2C7F89C20D7F89C20B2FA82F2F9
:1011B00010463A6852680A3A02FB00F21F2000FA11
:1011C00002F2D24311403A6810684FF4F862C7F84F
:1011D000A820D7F8A82092FAA2F2C7F8A420D7F83E
:1011E000A420B2FA82F214463A6852680A3A02FB24
:1011F00004F200FA02F20A439A6337E07B681B6844
:101200007A681268D16B4FF4F862C7F89020D7F86B
:10121000902092FAA2F2C7F88C20D7F88C20B2FA6C
:1012200082F210463A6852680F3A02FB00F21F2021
:1012300000FA02F2D24311403A6810684FF4F862A3
:10124000C7F89820D7F8982092FAA2F2C7F894200D
:10125000D7F89420B2FA82F214463A6852680F3AEC
:1012600002FB04F200FA02F20A43DA637B681B68AD
:101270009B6803F00C03002B40F067813B681B6800
:10128000092B34D97B681B687A6812689169382207
:10129000C7F88020D7F8802092FAA2F2FA67FA6F96
:1012A000B2FA82F210463A6812680A3A02FB00F279
:1012B000072000FA02F2D24311403A6890683822BF
:1012C000C7F88820D7F8882092FAA2F2C7F88420BD
:1012D000D7F88420B2FA82F214463A6812680A3AC1
:1012E00002FB04F200FA02F20A439A612BE07B68E7
:1012F0001B687A681268516938223A673A6F92FA25
:10130000A2F2FA66FA6EB2FA82F210463A681268EF
:1013100002FB00F2072000FA02F2D24311403A68C1
:1013200090683822BA67BA6F92FAA2F27A677A6F37
:10133000B2FA82F214463A68126802FB04F200FA2A
:1013400002F20A435A613B685A697B681B68DB6892
:10135000DB0803F003035B0002FA03F3C7F8D030A5
:101360003B681B69013B032B7AD801A252F823F09A
:1013700081130008B9130008F113000829140008AC
:101380007B681A687B681B68196EA54B0B4039682F
:1013900008684FF0F841B966B96E91FAA1F1796623
:1013A000796EB1FA81F18840D7F8D01001430B4330
:1013B00043F000431366C8E07B681A687B681B68CB
:1013C000596E974B0B40396808684FF0F841396601
:1013D000396E91FAA1F1F965F96DB1FA81F18840A0
:1013E000D7F8D01001430B4343F000435366ACE001
:1013F0007B681A687B681B68996E894B0B4039685B
:1014000008684FF0F841B965B96D91FAA1F17965B5
:10141000796DB1FA81F18840D7F8D01001430B43C0
:1014200043F00043936690E07B681A687B681B6812
:10143000D96E7B4B0B40396808684FF0F84139652D
:10144000396D91FAA1F1F964F96CB1FA81F1884032
:10145000D7F8D01001430B4343F00043D36674E048
:101460007B681B681B6E03F0F8423B6819684FF0FD
:10147000F843BB64BB6C93FAA3F37B647B6CB3FA55
:1014800083F301FA03F39A4207D17B681B687A68F9
:101490001268126E22F000421A667B681B685B6E4F
:1014A00003F0F8423B6819684FF0F8433B643B6C2B
:1014B00093FAA3F3FB63FB6BB3FA83F301FA03F331
:1014C0009A4207D17B681B687A681268526E22F0D4
:1014D00000425A667B681B689B6E03F0F8423B68CB
:1014E00019684FF0F843BB63BB6B93FAA3F37B63BC
:1014F0007B6BB3FA83F301FA03F39A4207D17B685B
:101500001B687A681268926E22F000429A667B68C5
:101510001B68DB6E03F0F8423B6819684FF0F84334
:101520003B633B6B93FAA3F3FB62FB6AB3FA83F36F
:1015300001FA03F39A4207D17B681B687A68126844
:10154000D26E22F00042DA6600BF7B681B689B689F
:1015500003F00303012B08D17B681B681B6803F0B1
:101560000103012B01D1012300E00023002B40F0F7
:101570001B813B68DB68B3F1804F0FD07B681B6831
:101580007A681268D2F8B0103A681268012000FA3E
:1015900002F2D2430A40C3F8B02071E07B681B68B6
:1015A0007A681268D2F8B0103A681268012000FA1E
:1015B00002F20A43C3F8B0203B681B68082B31D9FC
:1015C0007B681B687A681268916938223A623A6AC5
:1015D00092FAA2F2FA61FA69B2FA82F210463A6815
:1015E0001268093A02FB00F2072000FA02F2D24325
:1015F00011403A6890683822BA62BA6A92FAA2F246
:101600007A627A6AB2FA82F214463A681268093A41
:1016100002FB04F200FA02F20A439A6130E000BFD2
:1016200000F0FF037B681B687A68126851693822F2
:101630003A613A6992FAA2F2FA60FA68B2FA82F270
:1016400010463A681268013202FB00F2072000FAE5
:1016500002F2D24311403A6890683822BA61BA69FE
:1016600092FAA2F27A617A69B2FA82F214463A6880
:101670001268013202FB04F200FA02F20A435A61D4
:101680004F4BC7F8CC303B681B68112B06D1D7F8FD
:10169000CC309B6803F40003002B15D03B681B681B
:1016A000122B06D1D7F8CC309B6803F08073002B47
:1016B0000AD03B681B68002B76D1D7F8CC309B68EA
:1016C00003F48003002B6FD17B681B689B6803F0D9
:1016D0000303012B08D17B681B681B6803F001031F
:1016E000012B01D1012300E00023002B47D13B68EF
:1016F0001B68112B1FD17B681B68324A934252D161
:10170000D7F8CC309B6843F40002D7F8CC309A600D
:101710002D4B1B682D4AA2FB0323DA0C13461B0139
:101720009B1ADB00BB6002E0BB68013BBB60BB688F
:10173000002BF9D137E03B681B68122B0DD17B6879
:101740001B68204A93422ED1D7F8CC309B6843F0D7
:101750008072D7F8CC309A6025E03B681B68002B7C
:1017600021D17B681B68174A93421CD1D7F8CC3033
:101770009B6843F48002D7F8CC309A6013E07B6812
:101780009B6D43F020027B689A65012387F8D73070
:101790000AE07B689B6D43F020027B689A65012319
:1017A00087F8D73000E000BF7B68002283F8542020
:1017B00097F8D7301846D837BD4690BC704700BF61
:1017C00000030450000004503C04002083DE1B434F
:1017D00080B584B000AF78600023FB607B681B6835
:1017E0009B6803F00303012B08D17B681B681B680F
:1017F00003F00103012B01D1012300E00023002BA2
:1018000044D17B681B689A68234B1340002B0DD092
:101810007B689B6D43F010027B689A657B68DB6D8B
:1018200043F001027B68DA65012330E07B681B68C6
:101830007A681268926842F001029A60FFF758F9DC
:10184000F8601CE07B681B687A681268926842F056
:1018500001029A60FFF74CF90246FB68D31A022B8B
:101860000DD97B689B6D43F010027B689A657B689D
:10187000DB6D43F001027B68DA65012307E07B68DA
:101880001B681B6803F00103012BDBD10023184602
:101890001037BD4680BD00BF3F00008080B584B0DA
:1018A00000AF78600023FB607B681B689B6803F0D7
:1018B0000303012B08D17B681B681B6803F001033D
:1018C000012B01D1012300E00023002B40D07B68D5
:1018D0001B689B6803F00D03012B0FD17B681B680D
:1018E0007A681268926842F002029A607B681B680C
:1018F00003221A60FFF7FCF8F86022E07B689B6D1A
:1019000043F010027B689A657B68DB6D43F001024F
:101910007B68DA6501231CE0FFF7EAF80246FB6802
:10192000D31A022B0DD97B689B6D43F010027B68A4
:101930009A657B68DB6D43F001027B68DA65012301
:1019400007E07B681B689B6803F00103012BE3D071
:10195000002318461037BD4680BD80B584B000AF67
:10196000786039600023FB720023FB607B6893F88A
:101970005430012B01D1022359E07B68012283F806
:1019800054207868FFF78AFF0346FB72FB7A002B2E
:1019900042D17B689B6D23F4885323F0020343F00C
:1019A00002027B689A657B681B687A681268926895
:1019B00022F080413A680A439A607B681B687A6823
:1019C0001268926842F000429A6014E0FB680133AA
:1019D000FB60FB68B3F57A4F0DD37B689B6D23F0FA
:1019E000120343F010027B689A657B68002283F83B
:1019F000542001231BE07B681B689B6803F00043B5
:101A0000B3F1004FE2D07B689B6D23F0030343F0FA
:101A100001027B689A6505E07B689B6D43F01002CC
:101A20007B689A657B68002283F85420FB7A18460D
:101A30001037BD4680BD000080B485B000AF78602F
:101A40007B6803F00703FB600C4BDB68BB60BA6884
:101A50004FF6FF031340BB60FB681A02BB681343D9
:101A600043F0BF6343F40033BB60044ABB68D360F8
:101A700000BF1437BD465DF8047B704700ED00E001
:101A800080B400AF044BDB681B0A03F00703184661
:101A9000BD465DF8047B704700ED00E080B483B084
:101AA00000AF0346FB71094997F907305B09FA79E2
:101AB00002F01F02012000FA02F241F8232000BFC9
:101AC0000C37BD465DF8047B704700BF00E100E0C5
:101AD00080B483B000AF03463960FB7197F90730DB
:101AE000002B0BDA0D49FB7903F00F03043B3A6836
:101AF000D2B21201D2B20B441A7609E0084997F922
:101B000007303A68D2B21201D2B20B4483F80023F4
:101B100000BF0C37BD465DF8047B704700ED00E068
:101B200000E100E080B489B000AFF860B9607A608D
:101B3000FB6803F00703FB61FB69C3F10703042B98
:101B400028BF0423BB61FB690433062B02D9FB6960
:101B5000033B00E000237B610122BB6902FA03F32F
:101B60005A1EBB681A407B699A4001217B6901FAC1
:101B700003F3591E7B680B40134318462437BD46B8
:101B80005DF8047B7047000080B582B000AF7860DC
:101B90007B68013BB3F1807F01D301230FE00A4A48
:101BA0007B68013B53600F214FF0FF30FFF790FF40
:101BB000054B00229A60044B07221A600023184646
:101BC0000837BD4680BD00BF10E000E080B582B0A0
:101BD00000AF78607868FFF72FFF00BF0837BD4679
:101BE00080BD80B586B000AF0346B9607A60FB73F4
:101BF00000237B61FFF744FF78617A68B9687869F0
:101C0000FFF790FF024697F90F3011461846FFF78D
:101C10005FFF00BF1837BD4680BD80B582B000AF02
:101C20000346FB7197F907301846FFF737FF00BFEF
:101C30000837BD4680BD80B582B000AF7860786857
:101C4000FFF7A2FF034618460837BD4680BD0000D7
:101C500080B483B000AF78607B68042B06D1094A5A
:101C6000084B1B6843F00403136005E0054A054B6D
:101C70001B6823F00403136000BF0C37BD465DF8FA
:101C8000047B704710E000E080B500AF09F08AFBEC
:101C900000BF80BD80B485B000AF78600023FB60DA
:101CA0007B68002B01D101239CE07B681B681A46EE
:101CB0004F4B9A420FD87B681B681A464D4B134412
:101CC0004D4AA2FB03231B099A007B685A647B6878
:101CD0004A4A1A640EE07B681B681A46484B134454
:101CE000454AA2FB03231B099A007B685A647B6860
:101CF000444A1A647B68022283F825207B681B68AB
:101D00001B68FB60FB6823F47F5323F03003FB6008
:101D10007B689A687B68DB681A437B681B691A4397
:101D20007B685B691A437B689B691A437B68DB6944
:101D30001A437B681B6A1343FA681343FB607B6892
:101D40001B68FA681A607B689B68B3F5804F31D0D6
:101D50007B681B6C294A934216D12B492A4B1A687F
:101D60007B685B6C0F2000FA03F3DB4313400B60CE
:101D70002548254B1A687B6859687B685B6C01FABB
:101D800003F31343036015E02049204B1A687B6876
:101D90005B6C0F2000FA03F3DB4313400B601B481E
:101DA0001A4B1A687B6859687B685B6C01FA03F30D
:101DB000134303607B680022DA627B6800221A63A7
:101DC0007B6800225A637B6800229A637B6800224A
:101DD000DA637B68012283F825207B68002283F880
:101DE0002420002318461437BD465DF8047B704755
:101DF00007040240F8FFFDBFCDCCCCCC0000024070
:101E0000F8FBFDBF00040240A8000240A804024005
:101E100080B586B000AFF860B9607A603B6000239F
:101E2000FB75FB6893F82430012B01D102234BE0B2
:101E3000FB68012283F82420FB6893F82530DBB28D
:101E4000012B3AD1FB68022283F82520FB6800228F
:101E5000DA63FB681B68FA681268126822F00102F4
:101E60001A603B687A68B968F86800F0D4F8FB68D3
:101E70001B6B002B08D0FB681B68FA68126812689D
:101E800042F00E021A600FE0FB681B68FA681268E5
:101E9000126822F004021A60FB681B68FA68126874
:101EA000126842F00A021A60FB681B68FA6812683E
:101EB000126842F001021A6005E0FB68002283F814
:101EC00024200223FB75FB7D18461837BD4680BDD4
:101ED00080B584B000AF78607B681B6C1B68FB60CA
:101EE0007B681B681B68BB607B685B6C04229A4044
:101EF000FB681340002B24D0BB6803F00403002BC5
:101F00001FD07B681B681B6803F02003002B07D1E0
:101F10007B681B687A681268126822F004021A60F3
:101F20007B681B6C7A68526C042101FA02F25A60D9
:101F30007B681B6B002B69D07B681B6B78689847AC
:101F400064E07B685B6C02229A40FB681340002BC4
:101F50002CD0BB6803F00203002B27D07B681B68E2
:101F60001B6803F02003002B0BD17B681B687A6889
:101F70001268126822F00A021A607B68012283F854
:101F800025207B681B6C7A68526C022101FA02F2F0
:101F90005A607B68002283F824207B68DB6A002B70
:101FA00034D07B68DB6A786898472FE07B685B6C8D
:101FB00008229A40FB681340002B28D0BB6803F02E
:101FC0000803002B23D07B681B687A6812681268AC
:101FD00022F00E021A607B681B6C7A68526C012139
:101FE00001FA02F25A607B680122DA637B680122FF
:101FF00083F825207B68002283F824207B685B6BB4
:10200000002B04D07B685B6B7868984700BF00BFEB
:102010001037BD4680BD80B485B000AFF860B960B0
:102020007A603B60FB681B6CFA68526C012101FA14
:1020300002F25A60FB681B683A685A60FB689B684A
:10204000102B08D1FB681B687A689A60FB681B68D4
:10205000BA68DA6007E0FB681B68BA689A60FB68D8
:102060001B687A68DA6000BF1437BD465DF8047BF0
:102070007047000080B487B000AF786039600023FB
:102080007B610023FB6000233B6154E13B681A68DD
:1020900001217B6901FA03F31340FB60FB68002B0D
:1020A00000F046813B685B68022B03D03B685B68AD
:1020B000122B23D17B69DA087B68083253F822306F
:1020C0003B617B6903F007039B000F2202FA03F3D5
:1020D000DB433A6913403B613B681A697B6903F053
:1020E00007039B0002FA03F33A6913433B617B69E0
:1020F000DA087B680832396943F822107B681B686C
:102100003B617B695B00032202FA03F3DB433A691C
:1021100013403B613B685B6803F003027B695B0033
:1021200002FA03F33A6913433B617B683A691A6028
:102130003B685B68012B0BD03B685B68022B07D0C8
:102140003B685B68112B03D03B685B68122B30D176
:102150007B689B683B617B695B00032202FA03F3A7
:10216000DB433A6913403B613B68DA687B695B009B
:1021700002FA03F33A6913433B617B683A699A6058
:102180007B685B683B6101227B6902FA03F3DB43F6
:102190003A6913403B613B685B681B0903F001022D
:1021A0007B6902FA03F33A6913433B617B683A693E
:1021B0005A607B68DB683B617B695B00032202FA43
:1021C00003F3DB433A6913403B613B689A687B69E0
:1021D0005B0002FA03F33A6913433B617B683A6997
:1021E000DA603B685B6803F08053002B00F0A0804E
:1021F000584A584B1B6E43F001031366554B1B6E38
:1022000003F00103BB60BB68534A7B699B08023340
:1022100052F823303B617B6903F003039B000F22DC
:1022200002FA03F3DB433A6913403B617B68B3F185
:10223000904F19D07B68494A934213D07B68484A33
:1022400093420DD07B68474A934207D07B68464A49
:10225000934201D1042308E0072306E0032304E0AE
:10226000022302E0012300E000237A6902F0030266
:10227000920093403A6913433B6137497B699B085D
:1022800002333A6941F82320384B1B683B61FB68F5
:10229000DB433A6913403B613B685B6803F480337E
:1022A000002B03D03A69FB6813433B612F4A3B691B
:1022B00013602E4B5B683B61FB68DB433A6913405C
:1022C0003B613B685B6803F40033002B03D03A6941
:1022D000FB6813433B61254A3B695360234B9B6872
:1022E0003B61FB68DB433A6913403B613B685B68D9
:1022F00003F48013002B03D03A69FB6813433B615E
:102300001A4A3B699360194BDB683B61FB68DB430E
:102310003A6913403B613B685B6803F40013002B90
:1023200003D03A69FB6813433B61104A3B69D360B1
:102330007B6901337B613B681A687B6922FA03F38E
:10234000002B7FF4A3AE00BF1C37BD465DF8047BB5
:10235000704700BF00100240000001400004004828
:1023600000080048000C004800100048000401402C
:1023700080B483B000AF78600B467B8013467B70DF
:102380007B78002B03D07A887B689A6102E07A8898
:102390007B689A6200BF0C37BD465DF8047B7047CE
:1023A00080B582B000AF0346FB80084B5A69FB88BA
:1023B0001340002B06D0054AFB885361FB88184662
:1023C00008F0D2FF00BF0837BD4680BD00040140C1
:1023D00080B582B000AF78607B68002B01D101230B
:1023E00080E07B6893F84130DBB2002B06D17B683C
:1023F000002283F84020786807F0CEFF7B68242213
:1024000083F841207B681B687A681268126822F0A2
:1024100001021A607B681B687A68526822F0706259
:102420001A617B681B687A681268926822F400421D
:102430009A607B68DB68012B07D17B681B687A6830
:10244000926842F400429A6006E07B681B687A68F2
:10245000926842F404429A607B68DB68022B04D1E4
:102460007B681B684FF400625A607B681A687B685F
:102470001B685B6843F0007343F4004353607B6860
:102480001B687A681268D26822F40042DA607B68BE
:102490001B687A6811697A68526911437A6892698F
:1024A00012020A43DA607B681B687A68D1697A682D
:1024B000126A0A431A607B681B687A68126812689D
:1024C00042F001021A607B6800225A647B68202275
:1024D00083F841207B6800221A637B68002283F81E
:1024E0004220002318460837BD4680BD80B588B01D
:1024F00002AFF8607A601A460B467B8113463B8137
:1025000000237B61FB6893F84130DBB2202B40F065
:10251000E680FB6893F84030012B01D10223DFE015
:10252000FB68012283F84020FEF7E2FA78617B69BC
:102530000093192301224FF40041F86800F0FCF9E0
:102540000346002B01D00323CAE0FB68212283F855
:102550004120FB68102283F84220FB6800225A6465
:10256000FB687A685A62FB683A895A85FB680022E0
:102570005A63FB685B8D9BB2FF2B0FD9FB68FF2270
:102580001A85FB681B8DDAB279894FF400530093EA
:102590004FF08073F86800F041FB71E0FB685B8DE1
:1025A0009AB2FB681A85FB681B8DDAB279894FF401
:1025B000005300934FF00073F86800F02FFB5FE0CA
:1025C0007A69396AF86800F0F1F90346002B07D000
:1025D000FB685B6C042B01D1012381E003237FE0C6
:1025E000FB681A68FB685B6A581CF96848621B78CC
:1025F0009362FB685B8D9BB2013B9AB2FB685A8584
:10260000FB681B8D013B9AB2FB681A85FB681B8D2A
:10261000002B35D1FB685B8D9BB2002B30D07B69E2
:1026200000933B6A00228021F86800F085F9034698
:10263000002B01D0032353E0FB685B8D9BB2FF2B83
:102640000ED9FB68FF221A85FB681B8DDAB27989E7
:10265000002300934FF08073F86800F0DFFA0FE07A
:10266000FB685B8D9AB2FB681A85FB681B8DDAB23A
:102670007989002300934FF00073F86800F0CEFAD8
:10268000FB685B8D9BB2002B9AD17A69396AF86836
:1026900000F0CCF90346002B07D0FB685B6C042BE1
:1026A00001D101231CE003231AE0FB681B682022F0
:1026B000DA61FB681A68FB681B6859680A4B0B40B3
:1026C0005360FB68202283F84120FB68002283F8D6
:1026D0004220FB68002283F84020002300E0022310
:1026E00018461837BD4680BD00E800FE80B588B0AA
:1026F00002AFF8607A601A460B467B8113463B8135
:1027000000237B61FB6893F84130DBB2202B40F063
:10271000E780FB6893F84030012B01D10223E0E011
:10272000FB68012283F84020FEF7E2F978617B69BB
:102730000093192301224FF40041F86800F0FCF8DF
:102740000346002B01D00323CBE0FB68222283F851
:102750004120FB68102283F84220FB6800225A6463
:10276000FB687A685A62FB683A895A85FB680022DE
:102770005A63FB685B8D9BB2FF2B0FD9FB68FF226E
:102780001A85FB681B8DDAB279894FF410530093D8
:102790004FF08073F86800F041FA72E0FB685B8DDF
:1027A0009AB2FB681A85FB681B8DDAB279894FF4FF
:1027B000105300934FF00073F86800F02FFA60E0B8
:1027C0007A69396AF86800F06DF90346002B07D082
:1027D000FB685B6C042B01D1012382E0032380E0C2
:1027E000FB685B6A591CFA685162FA681268526A9F
:1027F000D2B21A70FB681B8D013B9AB2FB681A8536
:10280000FB685B8D9BB2013B9AB2FB685A85FB6803
:102810001B8D002B35D1FB685B8D9BB2002B30D01C
:102820007B6900933B6A00228021F86800F084F8FD
:102830000346002B01D0032353E0FB685B8D9BB262
:10284000FF2B0ED9FB68FF221A85FB681B8DDAB2BD
:102850007989002300934FF08073F86800F0DEF967
:102860000FE0FB685B8D9AB2FB681A85FB681B8DD5
:10287000DAB27989002300934FF00073F86800F012
:10288000CDF9FB685B8D9BB2002B99D17A69396ACF
:10289000F86800F0CBF80346002B07D0FB685B6CB0
:1028A000042B01D101231CE003231AE0FB681B6801
:1028B0002022DA61FB681A68FB681B6859680B4BB9
:1028C0000B405360FB68202283F84120FB68002204
:1028D00083F84220FB68002283F84020002300E0B8
:1028E000022318461837BD4680BD00BF00E800FE31
:1028F00080B483B000AF78607B681B689B6903F08D
:102900000203022B03D17B681B6800229A627B685A
:102910001B689B6903F00103012B07D07B681B68D0
:102920007A681268926942F001029A6100BF0C371E
:10293000BD465DF8047B704780B584B000AFF86099
:10294000B9603B601346FB711CE03B68B3F1FF3F8D
:1029500018D03B68002B07D0FEF7CAF80246BB69C7
:10296000D21A3B689A420DD9FB68202283F8412095
:10297000FB68002283F84220FB68002283F8402095
:1029800003230FE0FB681B689A69BB681A40BB68A9
:102990009A420CBF01230023DBB21A46FB799A420C
:1029A000D3D0002318461037BD4680BD80B584B013
:1029B00000AFF860B9607A602CE07A68B968F868AE
:1029C00000F0CEF80346002B01D001232AE0BB68BB
:1029D000B3F1FF3F1ED0BB68002B07D0FEF788F88D
:1029E00002467B68D21ABB689A4213D9FB685B6CBB
:1029F00043F02002FB685A64FB68202283F84120E0
:102A0000FB68002283F84220FB68002283F8402004
:102A1000032307E0FB681B689B6903F00203022B9A
:102A2000CBD1002318461037BD4680BD80B584B099
:102A300000AFF860B9607A6028E07A68B968F86831
:102A400000F08EF80346002B01D0012326E0BB687E
:102A5000002B07D0FEF74CF802467B68D21ABB6801
:102A60009A4213D9FB685B6C43F02002FB685A64FE
:102A7000FB68202283F84120FB68002283F8422073
:102A8000FB68002283F84020032307E0FB681B68F3
:102A90009B6903F02003202BCFD100231846103769
:102AA000BD4680BD80B584B000AFF860B9607A6083
:102AB00048E07A68B968F86800F052F80346002BDD
:102AC00001D0012346E0FB681B689B6903F02003EB
:102AD000202B1CD1FB681B682022DA61FB681A6876
:102AE000FB681B6859681D4B0B405360FB68002254
:102AF0005A64FB68202283F84120FB68002283F897
:102B00004220FB68002283F84020012322E0BB68BA
:102B1000002B07D0FDF7ECFF02467B68D21ABB689A
:102B20009A420FD9FB685B6C43F02002FB685A6441
:102B3000FB68202283F84120FB68002283F84020B4
:102B4000032307E0FB681B689B6903F00403042B65
:102B5000AFD1002318461037BD4680BD00E800FE07
:102B600080B584B000AFF860B9607A60FB681B681C
:102B70009B6903F01003102B48D11CE0BB68B3F134
:102B8000FF3F18D0BB68002B07D0FDF7B1FF02460E
:102B90007B68D21ABB689A420DD9FB68202283F861
:102BA0004120FB68002283F84220FB68002283F862
:102BB000402003232BE0FB681B689B6903F0200384
:102BC000202BDBD1FB681B681022DA61FB681B68D5
:102BD0002022DA61F868FFF78BFEFB681A68FB6851
:102BE0001B6859680C4B0B405360FB6804225A6405
:102BF000FB68202283F84120FB68002283F84220F2
:102C0000FB68002283F84020012300E000231846DF
:102C10001037BD4680BD00BF00E800FE80B487B01D
:102C200000AFF8607B600B467B8113467B7200230C
:102C30007B61FB681B685B687B617A690D4B1340A5
:102C40007B617B89C3F309027B7A1B0403F47F0356
:102C50001A437B681A433B6A13437A6913437B61C7
:102C6000FB681B687A695A6000BF1C37BD465DF877
:102C7000047B7047009800FC80B483B000AF78609C
:102C800039607B6893F84130DBB2202B38D17B6808
:102C900093F84030012B01D1022332E07B680122FE
:102CA00083F840207B68242283F841207B681B68DE
:102CB0007A681268126822F001021A607B681B6849
:102CC0007A681268126822F480521A607B681B6866
:102CD0007A68126811683A680A431A607B681B6850
:102CE0007A681268126842F001021A607B6820223A
:102CF00083F841207B68002283F84020002300E015
:102D0000022318460C37BD465DF8047B704780B53A
:102D100084B000AF78600023FB607B681B681846B6
:102D200004F026FD034603F40043B3F5004F02D13F
:102D3000786800F02DFB7B681B68184604F018FDCE
:102D4000034603F48063B3F5806F12D17B681B6880
:102D50007A681268B2F8442092B222F4806292B289
:102D6000A3F84420786807F036FD0021786800F069
:102D70004DF97B681B68184604F0FAFC034603F41F
:102D80008043B3F5804F0BD17B681B687A6812686B
:102D9000B2F8442092B222F4804292B2A3F84420C6
:102DA0007B681B68184604F0E3FC034603F40053F9
:102DB000B3F5005F0BD17B681B687A681268B2F8C4
:102DC000442092B222F4005292B2A3F844207B68CD
:102DD0001B68184604F0CCFC034603F48053B3F59B
:102DE000805F57D17B681B687A681268B2F8402010
:102DF00092B222F0040292B2A3F840204FF43F4373
:102E0000FB607B681B68FA6892B2A3F840207B687D
:102E10001B6A012B22D1FB6843F08003FB607B68B7
:102E20001B68BB607B680122C3F828247B680022F2
:102E300083F82024BB68B3F854309BB243F00103FD
:102E40009AB2BB68A3F85420BB68B3F854309BB265
:102E500043F002039AB2BB68A3F854207B6893F84E
:102E60002034012B07D17B68002283F82024002125
:102E7000786807F083FE786807F0EAFC7B681B68D7
:102E80007A681268B2F8442092B222F4805292B268
:102E9000A3F844207B681B68184604F069FC0346CD
:102EA00003F40063B3F5006F31D17B681B687A6867
:102EB0001268B2F8442092B222F4006292B2A3F8EF
:102EC00044207B681B687A681268B2F8402092B28E
:102ED00042F0080292B2A3F840207B681B687A682F
:102EE0001268B2F8402092B242F0040292B2A3F803
:102EF00040207B681B68184604F03AFC034603F444
:102F00008053B3F5805F02D0786807F087FC7B6858
:102F10001B68184604F02CFC034603F08003802B4A
:102F20003FD17B681B687A681268B2F8442092B27D
:102F300022F0800292B2A3F844207B6893F82034F8
:102F4000002B2BD17B681B687A681268B2F840208E
:102F500092B242F0040292B2A3F840207B681B6850
:102F60007A681268B2F8402092B242F0080292B237
:102F7000A3F840207B68012283F820247B681B682B
:102F8000B3F854309BB29B1003F03C027B68C3F84B
:102F900024240121786807F0F1FD02E0786807F049
:102FA0003DFC7B681B68184604F0E2FB034603F413
:102FB0000073B3F5007F0ED17B681B687A681268D6
:102FC000B2F8442092B222F4007292B2A3F84420E4
:102FD000786807F0F2FB7B681B68184604F0C8FBB2
:102FE000034603F48073B3F5807F0BD17B681B68C5
:102FF0007A681268B2F8442092B222F4807292B2D7
:10300000A3F8442000BF1037BD4680BD80B582B014
:1030100000AF78600B46FB707B6893F8EC33012BB4
:1030200001D1022313E07B68012283F8EC237B6843
:10303000FA7883F828207B681B68FA7811461846CE
:1030400004F082FB7B68002283F8EC2300231846FF
:103050000837BD4680BD80B584B000AF78600846B3
:1030600011461A460346FB700B463B801346BB7065
:103070000023FB720023FB6097F90330002B09DA71
:10308000FB7803F07F035B0128337A681344043331
:10309000FB6009E0FB7803F07F035B0103F502733B
:1030A0007A6813440433FB60FB7803F07F03DAB2E1
:1030B000FB681A7097F90330DBB2DB09DBB21A4602
:1030C000FB685A703A88FB681A61FB68BA78DA7054
:1030D0007B6893F8EC33012B01D102230EE07B686F
:1030E000012283F8EC237B681B68F968184603F01B
:1030F0003BFD7B68002283F8EC23FB7A18461037EF
:10310000BD4680BD80B586B000AFF8607A603B6098
:103110000B46FB7200237B61FB7A03F07F035B01AC
:1031200003F50273FA68134404337B617B697A68A0
:103130005A617B693A689A617B690022DA617B692E
:1031400000225A70FB7A03F07F03DAB27B691A70AF
:10315000FB6893F8EC33012B01D1022320E0FB68DC
:10316000012283F8EC23FB7A03F07F03002B09D1C3
:10317000FB681868FB68DB68DBB21A46796903F004
:10318000D5FF08E0FB681868FB68DB68DBB21A460D
:10319000796903F0CBFFFB68002283F8EC2300235E
:1031A00018461837BD4680BD80B586B000AFF860C0
:1031B0007A603B600B46FB7200237B61FB7A03F075
:1031C0007F035B012833FA68134404337B617B6916
:1031D0007A685A617B693A689A617B690022DA6190
:1031E0007B6901225A70FB7A03F07F03DAB27B69B4
:1031F0001A70FB6893F8EC33012B01D1022320E015
:10320000FB68012283F8EC23FB7A03F07F03002B99
:1032100009D1FB681868FB68DB68DBB21A4679697C
:1032200003F084FF08E0FB681868FB68DB68DBB22A
:103230001A46796903F07AFFFB68002283F8EC23D1
:10324000002318461837BD4680BD80B584B000AF56
:1032500078600B46FB700023FB6097F90330002B6E
:1032600009DAFB7803F07F035B0128337A681344A3
:103270000433FB6007E0FB785B0103F502737A68B7
:1032800013440433FB60FB6801229A70FB7803F05F
:103290007F03DAB2FB681A7097F90330DBB2DB09FF
:1032A000DBB21A46FB685A707B6893F8EC33012B4B
:1032B00001D102231EE07B68012283F8EC237B68A6
:1032C0001B68F968184604F051F9FB7803F07F0396
:1032D000002B0AD17B6818687B68DB68D9B27B68F1
:1032E00003F57C731A4604F055FA7B68002283F8D4
:1032F000EC23002318461037BD4680BD80B584B04E
:1033000000AF78600B46FB700023FB6097F9033039
:10331000002B09DAFB7803F07F035B0128337A681E
:1033200013440433FB6007E0FB785B0103F5027391
:103330007A6813440433FB60FB6800229A70FB78C0
:1033400003F07F03DAB2FB681A7097F90330DBB23F
:10335000DB09DBB21A46FB685A707B6893F8EC33E2
:10336000012B01D102230EE07B68012283F8EC23BC
:103370007B681B68F968184604F058F97B680022DE
:1033800083F8EC23002318461037BD4680BD0000AB
:1033900090B589B000AF78600023BB610023FB8348
:1033A0000023FB750023FB810023BB81F6E2FB8930
:1033B0009BB2DBB203F00F03FB75FB7D002B40F0EB
:1033C0002181FB899BB203F01003002B4BD17B685A
:1033D0001A687B681B681B889BB223F4E14323F0C7
:1033E00070039BB213807B682C33BB617B681B68C6
:1033F000B3F850309BB21A46BB691B78DB0013440C
:103400001A467B681B68134403F202431B88C3F30C
:103410000902BB69DA61BB695A69BB69DB691A4495
:10342000BB695A610021786807F0B0F97B6893F8AE
:103430002830DBB2002B00F0B182BB699B69002B06
:1034400040F0AC827B681B687A6892F82820D2B280
:1034500062F07F02D2B292B2A3F84C207B680022C5
:1034600083F828209AE27B6803F50373BB617B68CD
:103470001B681B889BB2BB81BB899BB203F40063B2
:10348000002B2FD07B681B68B3F850309BB21A46D4
:10349000BB691B78DB0013441A467B681B68134426
:1034A00003F206431B88C3F30902BB69DA617B6838
:1034B00018687B6803F57C71BB699A88BB69DB6916
:1034C0009BB204F0B0F97B681A687B681B681B88A4
:1034D00099B240F68F730B409BB21380786807F067
:1034E0002BF95BE2BB899BB21BB2002B80F25682A8
:1034F0007B681A687B681B681B8899B240F68F73DB
:103500000B409BB213807B681B68B3F850309BB2B2
:103510001A46BB691B78DB0013441A467B681B689C
:10352000134403F206431B88C3F30902BB69DA6143
:10353000BB69DB69002B11D07B681868BB695969CE
:10354000BB699A88BB69DB699BB204F06CF9BB6903
:103550005A69BB69DB691A44BB695A610021786802
:1035600007F0FCF87B681B68B3F850309BB21A4632
:103570007B681B68134403F206433B61BB691B690C
:103580003E2B17D9BB691B695B09BB83BB691B69F0
:1035900003F01F03002B02D1BB8B013BBB83BB8B12
:1035A0009B029BB26FEA43436FEA53439AB23B6973
:1035B0001A8011E0BB691B695B08BB83BB691B698F
:1035C00003F00103002B02D0BB8B0133BB83BB8B09
:1035D0009B029AB23B691A807B681B681B889BB26E
:1035E00023F4804323F070039CB284F480539CB294
:1035F00084F400539CB27B681A68964B23439BB2B9
:103600001380CBE17B681B681A46FB7D9B0013444B
:103610001B889BB2BB81BB899BB21BB2002B80F283
:10362000CD807B681B681A46FB7D9B001A447B6833
:103630001B681946FB7D9B000B441B8899B240F622
:103640008F730B409BB21380FB7D5B0103F502730C
:103650007A6813440433BB61BB699B7A002B20D189
:103660007B681B68B3F850309BB21A46BB691B7865
:10367000DB0013441A467B681B68134403F20643BD
:103680001B88C3F30903FB83FB8B002B71D07B6882
:103690001868BB695969BB699A88FB8B04F0C3F849
:1036A00067E07B681B681A46BB691B789B00134464
:1036B0001B889BB203F48043002B20D07B681B68DF
:1036C000B3F850309BB21A46BB691B78DB00134439
:1036D0001A467B681B68134403F202431B88C3F33A
:1036E0000903FB83FB8B002B29D07B681868BB691F
:1036F0005969BB69DA88FB8B04F095F81FE07B6899
:103700001B68B3F850309BB21A46BB691B78DB00CC
:1037100013441A467B681B68134403F206431B8854
:10372000C3F30903FB83FB8B002B08D07B6818686D
:10373000BB695969BB691A89FB8B04F074F87B6813
:103740001B681A46BB691B789B001A447B681B6880
:103750001946BB691B789B000B441B889BB219B2AE
:1037600040F60F730B4019B23B4B0B431BB29BB29D
:103770001380BB69DA69FB8B1A44BB69DA61BB69E8
:103780005A69FB8B1A44BB695A61BB699B69002B60
:1037900004D0FA8BBB691B699A4206D2BB691B78BD
:1037A0001946786806F0DAFF08E0BB691978BB694A
:1037B0005A69BB699B697868FFF7A4FCBB899BB217
:1037C00003F08003002B00F0E980FB7D5B012833D0
:1037D0007A6813440433BB617B681B681A46FB7D1F
:1037E0009B001A447B681B681946FB7D9B000B44B9
:1037F0001B889BB223F4E14323F070039BB2138038
:10380000BB699B7A002B29D17B681B68B3F85030C9
:103810009BB21A46BB691B78DB0013441A467B68CF
:103820001B68134403F202431B88C3F30902BB69FC
:10383000DA61BB69DB69002B00F080807B68186867
:10384000BB695969BB699A88BB69DB699BB203F0A4
:10385000AFFF73E08080FFFFC080FFFF7B681B68C5
:103860001A46BB691B789B0013441B889BB203F06C
:103870004003002B24D07B681B68B3F850309BB208
:103880001A46BB691B78DB0013441A467B681B6829
:10389000134403F202431B88C3F30902BB69DA61D4
:1038A000BB69DB69002B2FD07B681868BB6959693D
:1038B000BB69DA88BB69DB699BB203F079FF23E05F
:1038C0007B681B68B3F850309BB21A46BB691B7803
:1038D000DB0013441A467B681B68134403F206435B
:1038E0001B88C3F30902BB69DA61BB69DB69002B82
:1038F0000AD07B681868BB695969BB691A89BB69BA
:10390000DB699BB203F054FF7B681B681A46BB69F6
:103910001B789B001A447B681B681946BB691B789F
:103920009B000B441B889BB219B240F60F730B40EF
:1039300019B2224B0B431BB29BB213807B681B68EE
:10394000B3F850309BB21A46BB691B78DB001344B6
:103950001A467B681B68134403F202431B88C3F3B7
:103960000902BB69DA61BB695A69BB69DB691A4440
:10397000BB695A61BB699B69002B06D1BB691B7887
:103980001946786806F002FF08E0BB691978BB6940
:103990005A69BB699B697868FFF706FC7B681B68FE
:1039A000B3F844309BB21A46FA811BB2002BFFF6E3
:1039B000FEAC002318462437BD4690BD80C0FFFFF3
:1039C00080B400AF044B1B6803F4C0631846BD46C7
:1039D0005DF8047B704700BF0070004080B485B084
:1039E00000AF78600023FB607B68B3F5007F2FD1C8
:1039F000224B1B6803F4C063B3F5007F37D01F4A26
:103A00001E4B1B6823F4C06343F4007313601C4B0C
:103A10001B681C4AA2FB03239B0C322202FB03F30C
:103A2000FB6002E0FB68013BFB60FB68002B06D0FB
:103A3000124B5B6903F48063B3F5806FF2D00F4BD8
:103A40005B6903F48063B3F5806F10D103230FE04B
:103A50000A4B1B6803F4C063B3F5806F07D0074AB5
:103A6000064B1B6823F4C06343F480631360002398
:103A700018461437BD465DF8047B7047007000405F
:103A80003C04002083DE1B4380B58CB000AF78601F
:103A90000023BB627B681B6803F01003002B00F05F
:103AA000DB80A24B9B6803F00C03002B40F084806A
:103AB0009E4B1B6803F00203002B05D07B689B69BB
:103AC000002B01D101239BE37B681A6A974B1B688B
:103AD00003F00803002B04D0944B1B6803F0F003A1
:103AE00005E0924BD3F894301B0903F0F0039A429F
:103AF00023D97B681B6A184600F0B0FD0346002BF3
:103B000001D001237CE3894A884B1B6843F00803FA
:103B100013608649854B1B6823F0F0027B681B6AA3
:103B200013430B608149814B5B6823F47F427B68C0
:103B3000DB691B0213434B6022E07C4A7B4B1B6812
:103B400043F0080313607949784B1B6823F0F002B7
:103B50007B681B6A13430B607449744B5B6823F4E6
:103B60007F427B68DB691B0213434B607B681B6AE7
:103B7000184600F073FD0346002B01D001233FE3FC
:103B800000F066FC0146694B9B6803F0F002F023ED
:103B90007B627B6A93FAA3F33B623B6AB3FA83F3DB
:103BA00022FA03F3624AD35C21FA03F3614A1360F9
:103BB0000020FCF773FF4FE07B689B69002B32D03D
:103BC0005A4A5A4B1B6843F001031360FCF790FFFD
:103BD000B86208E0FCF78CFF0246BB6AD31A022BDE
:103BE00001D903230CE3514B1B6803F00203002BA4
:103BF000F0D04E4A4D4B1B6843F0080313604B490D
:103C00004A4B1B6823F0F0027B681B6A13430B606E
:103C10004649464B5B6823F47F427B68DB691B02A5
:103C200013434B6018E0414A404B1B6823F00103EB
:103C30001360FCF75DFFB86208E0FCF759FF02462D
:103C4000BB6AD31A022B01D90323D9E2374B1B6875
:103C500003F00203002BF0D17B681B6803F0010323
:103C6000002B7AD0314B9B6803F00C03082B0BD050
:103C70002E4B9B6803F00C030C2B11D12B4BDB68F4
:103C800003F00303032B0BD1284B1B6803F4003311
:103C9000002B61D07B685B68002B5DD10123AFE214
:103CA0007B685B68B3F5803F06D1204A1F4B1B68D9
:103CB00043F4803313601DE07B685B68B3F5A02F8D
:103CC0000CD11A4A194B1B6843F480231360174A1E
:103CD000164B1B6843F4803313600BE0134A134BFD
:103CE0001B6823F480331360104A104B1B6823F4C5
:103CF000802313607B685B68002B13D0FCF7F8FE11
:103D0000B86208E0FCF7F4FE0246BB6AD31A642BE3
:103D100001D9032374E2054B1B6803F40033002B25
:103D2000F0D01AE0FCF7E4FEB8620EE000100240AA
:103D300028C000083C040020FCF7DAFE0246BB6AFB
:103D4000D31A642B01D903235AE2B04B1B6803F446
:103D50000033002BF0D100E000BF7B681B6803F04C
:103D60000203002B7FD0A94B9B6803F00C03042BAC
:103D70000BD0A64B9B6803F00C030C2B27D1A34B55
:103D8000DB6803F00303022B21D1A04B1B6803F473
:103D90008063002B05D07B68DB68002B01D10123F9
:103DA0002EE29A48994B5B6823F0F8527B681969B8
:103DB0004FF0F853FB61FB6993FAA3F3BB61BB6956
:103DC000B3FA83F301FA03F3134343604BE07B68D8
:103DD000DB68002B2ED08D4A8C4B1B6843F480731C
:103DE0001360FCF785FEB86208E0FCF781FE02462E
:103DF000BB6AD31A022B01D9032301E2834B1B6850
:103E000003F48063002BF0D08048804B5B6823F084
:103E1000F8527B6819694FF0F8537B617B6993FA1C
:103E2000A3F33B613B69B3FA83F301FA03F3134352
:103E3000436018E0754A754B1B6823F48073136068
:103E4000FCF756FEB86208E0FCF752FE0246BB6A79
:103E5000D31A022B01D90323D2E16C4B1B6803F464
:103E60008063002BF0D17B681B6803F00803002BF4
:103E70003CD07B685B69002B1CD0644A634BD3F851
:103E8000943043F00103C2F89430FCF731FEB8627D
:103E900008E0FCF72DFE0246BB6AD31A022B01D9BB
:103EA0000323ADE1594BD3F8943003F00203002B08
:103EB000EFD01BE0554A554BD3F8943023F0010363
:103EC000C2F89430FCF714FEB86208E0FCF710FE6C
:103ED0000246BB6AD31A022B01D9032390E14B4B54
:103EE000D3F8943003F00203002BEFD17B681B68FA
:103EF00003F00403002B00F0A980002387F82F3083
:103F0000424B9B6D03F08053002B0ED13F4A3F4B39
:103F10009B6D43F0805393653C4B9B6D03F0805346
:103F2000FB60FB68012387F82F30394B1B6803F4D3
:103F30008073002B18D1364A354B1B6843F48073CD
:103F40001360FCF7D5FDB86208E0FCF7D1FD02462E
:103F5000BB6AD31A022B01D9032351E12C4B1B68F6
:103F600003F48073002BF0D07B689B68012B08D191
:103F7000264A264BD3F8903043F00103C2F8903024
:103F800024E07B689B68052B10D1204A1F4BD3F897
:103F9000903043F00403C2F890301C4A1B4BD3F816
:103FA000903043F00103C2F890300FE0174A174BEE
:103FB000D3F8903023F00103C2F89030134A134B2A
:103FC000D3F8903023F00403C2F890307B689B68EC
:103FD000002B16D0FCF78CFDB8620AE0FCF788FDD8
:103FE0000246BB6AD31A41F28832934201D90323B5
:103FF00006E1064BD3F8903003F00203002BEDD01E
:104000001AE0FCF775FDB8620FE000BF0010024037
:1040100000700040FCF76CFD0246BB6AD31A41F207
:104020008832934201D90323EAE0774BD3F89030EA
:1040300003F00203002BEDD197F82F30012B05D1AF
:10404000714A714B9B6D23F0805393657B681B68AD
:1040500003F02003002B3CD07B685B6A002B1CD054
:10406000694A694BD3F8983043F00103C2F898309D
:10407000FCF73EFDB86208E0FCF73AFD0246BB6A79
:10408000D31A022B01D90323BAE05F4BD3F898303F
:1040900003F00203002BEFD01BE05B4A5A4BD3F82E
:1040A000983023F00103C2F89830FCF721FDB86284
:1040B00008E0FCF71DFD0246BB6AD31A022B01D9AA
:1040C00003239DE0504BD3F8983003F00203002BFC
:1040D000EFD17B689B6A002B00F091804A4B9B6874
:1040E00003F00C030C2B00F088807B689B6A022B8A
:1040F00055D1454A444B1B6823F080731360FCF78D
:10410000F7FCB86208E0FCF7F3FC0246BB6AD31A7E
:10411000022B01D9032373E03B4B1B6803F00073B0
:10412000002BF0D138497B681B6B013B1A017B687F
:104130005B6B1B021A437B68DB6A1A437B68DB6B91
:104140005B08013B5B051A437B681B6C5B08013B0A
:104150005B061A437B689B6BDB061343CB602A4AE2
:10416000294B1B6843F080731360274A264BDB689A
:1041700043F08073D360FCF7BBFCB86208E0FCF747
:10418000B7FC0246BB6AD31A022B01D9032337E0DE
:104190001D4B1B6803F00073002BF0D02FE01A4A70
:1041A000194B1B6823F080731360174B1B6803F0D7
:1041B0000063002B05D1144A134BDB6823F0030383
:1041C000D360114A104BDB6823F0887323F48033EB
:1041D000D360FCF78DFCB86208E0FCF789FC02466E
:1041E000BB6AD31A022B01D9032309E0064B1B68D3
:1041F00003F00073002BF0D101E0012300E0002365
:1042000018463037BD4680BD0010024080B586B0EC
:1042100000AF7860396000237B61894B1B6803F035
:1042200007023B689A4210D28549854B1B6823F0F0
:1042300007023B6813430B60814B1B6803F00702C6
:104240003B689A4201D00123F6E07B681B6803F0CB
:104250000203002B08D07B497A4B9B6823F0F002C5
:104260007B689B6813438B607B681B6803F00103CA
:10427000002B00F08E807B685B68022B07D1714BAE
:104280001B6803F40033002B21D10123D4E07B68A9
:104290005B68032B07D16B4B1B6803F00073002B8B
:1042A00015D10123C8E07B685B68002B07D1654B03
:1042B0001B6803F00203002B09D10123BCE0614B12
:1042C0001B6803F48063002B01D10123B4E05D4936
:1042D0005C4B9B6823F003027B685B6813438B6035
:1042E000FCF706FC78617B685B68022B12D10AE060
:1042F000FCF7FEFB02467B69D31A41F288329342F7
:1043000001D9032398E04F4B9B6803F00C03082B63
:10431000EED13EE07B685B68032B12D10AE0FCF72C
:10432000E7FB02467B69D31A41F28832934201D9F6
:10433000032381E0434B9B6803F00C030C2BEED16D
:1043400027E07B685B68002B1DD10AE0FCF7D0FBFF
:1043500002467B69D31A41F28832934201D9032382
:104360006AE0384B9B6803F00C03002BEED110E0A1
:10437000FCF7BEFB02467B69D31A41F288329342B6
:1043800001D9032358E02F4B9B6803F00C03042B47
:10439000EED12B4B1B6803F007023B689A4210D901
:1043A0002749274B1B6823F007023B6813430B6028
:1043B000234B1B6803F007023B689A4201D001239C
:1043C0003AE07B681B6803F00403002B08D01D490A
:1043D0001C4B9B6823F4E0627B68DB6813438B60B3
:1043E0007B681B6803F00803002B09D01549154BA7
:1043F0009B6823F460527B681B69DB0013438B606E
:1044000000F026F801460F4B9B6803F0F002F02302
:104410003B613B6993FAA3F3FB60FB68B3FA83F358
:1044200022FA03F3084AD35C21FA03F3074A136024
:104430000020FCF733FB002318461837BD4680BD2B
:10444000002002400010024028C000083C04002068
:1044500080B495B000AF0023FB640023BB6400234D
:104460003B640223FB630223BB6300237B64714B29
:104470009B6803F00C03002B0BD06E4B9B6803F082
:104480000C030C2B3CD16B4BDB6803F00303012BBB
:1044900036D1684B1B6803F00803002B12D1654B23
:1044A000D3F8943003F470624FF470637B637B6BDA
:1044B00093FAA3F33B633B6BB3FA83F322FA03F360
:1044C000FB640FE05B4B1B6803F0F002F023FB6220
:1044D000FB6A93FAA3F3BB62BB6AB3FA83F322FAD3
:1044E00003F3FB64544AFB6C52F82330FB64514BDA
:1044F0009B6803F00C03002B13D1FB6C7B6410E072
:104500004C4B9B6803F00C03042B02D14B4B7B6498
:1045100007E0484B9B6803F00C03082B01D1484B84
:104520007B64444B9B6803F00C030C2B7BD1414B09
:10453000DB6803F003033B643E4BDB6803F070026F
:1045400070237B627B6A93FAA3F33B623B6AB3FA04
:1045500083F322FA03F30133BB633B6C022B02D0DB
:10456000032B18D02FE0354ABB6BB2FBF3F3314A73
:10457000D26802F4FE414FF4FE42FA61FA6992FAFF
:10458000A2F2BA61BA69B2FA82F221FA02F202FB2D
:1045900003F3BB642FE02A4ABB6BB2FBF3F3254A5B
:1045A000D26802F4FE414FF4FE427A617A6992FACF
:1045B000A2F23A613A69B2FA82F221FA02F202FBFD
:1045C00003F3BB6417E0FA6CBB6BB2FBF3F3194A5D
:1045D000D26802F4FE414FF4FE42FA60FA6892FAA1
:1045E000A2F2BA60BA68B2FA82F221FA02F202FBCF
:1045F00003F3BB6400BF0F4BDB6803F0C0624FF0F6
:10460000C0637B607B6893FAA3F33B603B68B3FABB
:1046100083F322FA03F301335B00FB63BA6CFB6B99
:10462000B2FBF3F37B647B6C18465437BD465DF8F0
:10463000047B70470010024040C000080024F400D2
:1046400000127A0080B400AF034B1B681846BD46C9
:104650005DF8047B704700BF3C04002080B586B045
:1046600000AF786000237B6100233B612A4B9B6D88
:1046700003F08053002B03D0FFF7A2F9786114E018
:10468000254A254B9B6D43F080539365224B9B6DD0
:1046900003F08053FB60FB68FFF792F978611E4AD4
:1046A0001D4B9B6D23F0805393657B69B3F5007FB1
:1046B0000BD17B68802B19D97B68A02B02D90223F0
:1046C0003B6113E001233B6110E07B68802B02D942
:1046D00003233B610AE07B68802B02D102233B610C
:1046E00004E07B68702B01D101233B610B490B4B2C
:1046F0001B6823F007023B6913430B60074B1B68E1
:1047000003F007023B699A4201D0012300E0002335
:1047100018461837BD4680BD0010024000200240F8
:1047200080B586B000AF786000237B610023FB601A
:104730000023FB740023BB747B681B6803F40063D5
:10474000002B2FD07B685B6CB3F5000F05D0B3F561
:10475000400F15D0002B07D00FE05A4A594BDB68A9
:1047600043F48033D3600CE07B68043300211846A7
:1047700000F076FA0346FB7403E00123FB7400E0CB
:1047800000BFFB7C002B0BD14E494E4BD3F8883039
:1047900023F440027B685B6C1343C1F8883001E06E
:1047A000FB7CBB747B681B6803F40033002B00F0B8
:1047B000988000237B74434B9B6D03F08053002B48
:1047C0000DD1404A3F4B9B6D43F0805393653D4B69
:1047D0009B6D03F08053BB60BB6801237B743A4A36
:1047E000394B1B6843F480731360FCF781F9F86060
:1047F00009E0FCF77DF90246FB68D31A022B02D9C7
:104800000323FB7405E0304B1B6803F48073002B1B
:10481000EFD0FB7C002B59D12A4BD3F8903003F416
:1048200040737B617B69002B1ED07B68DA6D7B69EE
:104830009A4219D0234BD3F8903023F440737B6114
:10484000204A204BD3F8903043F48033C2F89030A4
:104850001C4A1C4BD3F8903023F48033C2F89030BC
:10486000184A7B69C2F890307B6903F00103002B82
:1048700016D0FCF73DF9F8600BE0FCF739F9024679
:10488000FB68D31A41F28832934202D90323FB74A6
:1048900006E00C4BD3F8903003F00203002BECD071
:1048A000FB7C002B0BD10749064BD3F8903023F447
:1048B00040727B68DB6D1343C1F8903008E0FB7CED
:1048C000BB7405E00010024000700040FB7CBB742C
:1048D0007B7C012B05D18D4A8C4B9B6D23F0805343
:1048E00093657B681B6803F00103002B0AD087499E
:1048F000864BD3F8883023F003027B681B6A13438E
:10490000C1F888307B681B6803F00203002B0AD0D3
:104910007E497E4BD3F8883023F00C027B685B6ABB
:104920001343C1F888307B681B6803F00403002B35
:104930000AD07649754BD3F8883023F030027B6873
:104940009B6A1343C1F888307B681B6803F020031F
:10495000002B0AD06D496D4BD3F8883023F44062A8
:104960007B68DB6A1343C1F888307B681B6803F4FB
:104970000073002B0AD06549644BD3F8883023F4C8
:1049800040227B68DB6B1343C1F888307B681B686F
:1049900003F48063002B0AD05C495C4BD3F8883069
:1049A00023F440127B681B6C1343C1F888307B688A
:1049B0001B6803F04003002B0AD05449534BD3F833
:1049C000883023F440527B681B6B1343C1F8883056
:1049D0007B681B6803F08003002B0AD04B494B4BCC
:1049E000D3F8883023F440427B685B6B1343C1F8F3
:1049F00088307B681B6803F48073002B0AD043491E
:104A0000424BD3F8883023F440327B689B6B1343CE
:104A1000C1F888307B681B6803F40053002B28D052
:104A20003A493A4BD3F8883023F040627B689B6C5C
:104A30001343C1F888307B689B6CB3F1006F06D1DB
:104A4000324A324BDB6843F48013D36011E07B6859
:104A50009B6CB3F1806F0CD17B6804330121184645
:104A600000F0FEF80346FB74FB7C002B01D0FB7CBE
:104A7000BB747B681B6803F40023002B28D02349F8
:104A8000224BD3F8883023F040627B68DB6C134301
:104A9000C1F888307B68DB6CB3F1006F06D11B4A2C
:104AA0001A4BDB6843F48013D36011E07B68DB6C46
:104AB000B3F1806F0CD17B6804330121184600F0FC
:104AC000CFF80346FB74FB7C002B01D0FB7CBB744E
:104AD0007B681B6803F48023002B2BD00B490B4B06
:104AE000D3F8883023F040627B681B6D1343C1F814
:104AF00088307B681B6DB3F1006F09D1034A034B0B
:104B0000DB6843F48013D36014E000BF0010024060
:104B10007B681B6DB3F1806F0CD17B68043301217E
:104B2000184600F09DF80346FB74FB7C002B01D077
:104B3000FB7CBB747B681B6803F48043002B1CD098
:104B40001949194BD3F8883023F040527B685B6DCC
:104B50001343C1F888307B685B6DB3F1805F0CD183
:104B60007B6804330221184600F07AF80346FB7490
:104B7000FB7C002B01D0FB7CBB747B681B6803F4BF
:104B80000043002B0AD00849074BD3F8883023F0A4
:104B900080427B689B6D1343C1F88830BB7C18460C
:104BA0001837BD4680BD00BF0010024080B489B0F8
:104BB00000AF78600023FB61274A274B9B6B43F0D3
:104BC00080739363244A244B9B6B23F0807393631D
:104BD0007B681A687B685B681A437B689B68134331
:104BE000FB617B68DB68FA691343FB617B681A69C8
:104BF0004FF47F033B613B6993FAA3F3FB60FB68CF
:104C0000B3FA83F302FA03F3FA691343FB61134A1D
:104C1000FB6953601148114B1B6823F47C527B687D
:104C200059694FF47C53BB61BB6993FAA3F37B6171
:104C30007B69B3FA83F301FA03F313430360074A72
:104C4000064B1B6843F06003136000BF2437BD466A
:104C50005DF8047B704700BF001002400060004018
:104C600090B595B000AF786039600023BB64002335
:104C700087F84F30A34BDB6803F00303002B23D0EE
:104C8000A04BDB6803F003027B681B689A4217D1D4
:104C90007B681B68002B13D09A4BDB6803F0700213
:104CA00070237B647B6C93FAA3F33B643B6CB3FA95
:104CB00083F322FA03F35A1C7B685B689A4254D050
:104CC000012387F84F3050E07B681B68022B0DD022
:104CD000032B15D0012B23D18A4B1B6803F0020351
:104CE000002B21D1012387F84F301DE0854B1B6835
:104CF00003F48063002B19D1012387F84F3015E0AE
:104D0000804B1B6803F40033002B11D17D4B1B68D3
:104D100003F48023002B0BD1012387F84F3007E0E9
:104D2000012387F84F3004E000BF02E000BF00E03D
:104D300000BF97F84F30002B17D1724C714BDB68D6
:104D400023F073027B6819687B685B68581E7023C8
:104D5000FB63FB6B93FAA3F3BB63BB6BB3FA83F305
:104D600000FA03F30B431343E36097F84F30002B33
:104D700040F0C180634A634B1B6823F0806313607B
:104D8000FBF7B6FEB8640AE0FBF7B2FE0246BB6C66
:104D9000D31A022B03D9032387F84F3005E0594B70
:104DA0001B6803F00063002BEED197F84F30002B07
:104DB00040F0A1803B68002B25D1524C514B1B6920
:104DC00023F0784323F4FE437A6891684FF4FE425F
:104DD000FA62FA6A92FAA2F2BA62BA6AB2FA82F293
:104DE00091407A68D0684FF078427A637A6B92FA91
:104DF000A2F23A633A6BB2FA82F200FA02F20A4382
:104E00001343236151E03B68012B27D13D4C3D4BBF
:104E10001B6923F4C00323F4FE437A6891684FF4BE
:104E2000FE42FA61FA6992FAA2F2BA61BA69B2FA7A
:104E300082F291407A6812695208501E4FF4C00203
:104E40007A627A6A92FAA2F23A623A6AB2FA82F222
:104E500000FA02F20A431343236126E0294C294B4E
:104E60001B6923F0C06323F4FE437A6891684FF412
:104E7000FE42FA60FA6892FAA2F2BA60BA68B2FA2E
:104E800082F291407A6852695208501E4FF0C06217
:104E90007A617A6992FAA2F23A613A69B2FA82F2D6
:104EA00000FA02F20A4313432361164A154B1B68AA
:104EB00043F080631360FBF71BFEB8640AE0FBF766
:104EC00017FE0246BB6CD31A022B03D9032387F8C3
:104ED0004F3005E00B4B1B6803F00063002BEED056
:104EE00097F84F30002B06D10649064B1A697B68AC
:104EF0009B6913430B6197F84F3018465437BD46F2
:104F000090BD00BF0010024080B584B000AF786053
:104F10007B68002B01D101237AE07B6800229A6232
:104F20007B6893F85D30DBB2002B06D17B680022F2
:104F300083F85C20786805F05FFA7B68022283F8CA
:104F40005D207B681B687A681268126822F0400254
:104F50001A607B68DB68B3F5E06F02D90023FB6061
:104F600002E04FF48053FB607B68DB68B3F5706F41
:104F700007D07B68DB68B3F5E06F02D07B68002266
:104F80009A627B681B6B002B0BD17B68DB68B3F5E7
:104F9000E06F03D97B6802221A6302E07B6801227A
:104FA0001A637B681B687A6851687A689268114353
:104FB0007A68126911437A68526911437A68926972
:104FC00002F4007211437A68D26911437A68126A56
:104FD00011437A68926A0A431A607B681B687A6890
:104FE0009269120C02F004017A68526A11437A68DD
:104FF000526B11437A68D2681143FA680A435A60C7
:105000007B6800221A667B68012283F85D200023FA
:1050100018461037BD4680BD80B588B000AFF86037
:10502000B9603B601346FB800023BB610023FB7724
:10503000FB6893F85C30012B01D102233EE1FB6851
:10504000012283F85C20FBF753FDB861FB6893F8FD
:105050005D30DBB2012B02D00223FB7725E1BB6878
:10506000002B02D0FB88002B02D10123FB771CE12F
:10507000FB68032283F85D20FB6800221A66FB6848
:10508000BA689A63FB68FA889A87FB68FA88DA87B5
:10509000FB6800221A64FB680022A3F84420FB6826
:1050A0000022A3F84620FB6800221A65FB68002254
:1050B000DA64FB689B68B3F5004F07D1FB681B6897
:1050C000FA681268126842F480421A60FB681B6832
:1050D0001B6803F04003402B07D0FB681B68FA688D
:1050E0001268126842F040021A60FB68DB68B3F590
:1050F000E06F47D9FB685B68002B04D0FB68DB8F4F
:105100009BB2012B38D1FB681B68BA681288DA6041
:10511000BB680233BB60FB68DB8F9BB2013B9AB27A
:10512000FB68DA8728E0FB681B689B6803F00203D2
:10513000022B0FD1FB681B68BA681288DA60BB6863
:105140000233BB60FB68DB8F9BB2013B9AB2FB680A
:10515000DA8711E03B68002B0BD03B68B3F1FF3FCF
:105160000AD0FBF7C5FC0246BB69D21A3B689A42DB
:1051700002D30323FB7798E0FB68DB8F9BB2002B05
:10518000D1D172E0FB685B68002B04D0FB68DB8F39
:105190009BB2012B64D1FB68DB8F9BB2012B0FD933
:1051A000FB681B68BA681288DA60BB680233BB60B0
:1051B000FB68DB8F9BB2023B9AB2FB68DA874FE059
:1051C000FB681B6803F10C02BB68591CB9601B78B3
:1051D0001370FB68DB8F9BB2013B9AB2FB68DA87E6
:1051E0003EE0FB681B689B6803F00203022B25D19D
:1051F000FB68DB8F9BB2012B0FD9FB681B68BA6879
:105200001288DA60BB680233BB60FB68DB8F9BB23D
:10521000023B9AB2FB68DA8722E0FB681B6803F165
:105220000C02BB68591CB9601B781370FB68DB8FDC
:105230009BB2013B9AB2FB68DA8711E03B68002B16
:105240000BD03B68B3F1FF3F0AD0FBF751FC02469D
:10525000BB69D21A3B689A4202D30323FB7724E04E
:10526000FB68DB8F9BB2002BBBD1BA693968F86849
:1052700000F075FC0346002B02D0FB6820221A6662
:10528000FB689B68002B0AD100237B61FB681B68CD
:10529000DB687B61FB681B689B687B617B69FB68E3
:1052A0001B6E002B01D00123FB77FB68012283F8E2
:1052B0005D20FB68002283F85C20FB7F18462037C6
:1052C000BD4680BD80B58AB000AFF860B9607A6035
:1052D0007B800023FB610023BB6100237B610123F2
:1052E0007B62002387F82330FB6893F85C30012B46
:1052F00001D10223E1E1FB68012283F85C20FBF786
:10530000F7FB7861FB6893F85D30DBB2FB61FB680B
:105310005B68BB61FB69012B0ED0BB69B3F5827F73
:1053200006D1FB689B68002B02D1FB69042B03D0DC
:10533000022387F82330B6E1BB68002B05D07B68D9
:10534000002B02D07B88002B03D1012387F8233068
:10535000A9E1FB6893F85D30DBB2042B03D0FB6856
:10536000052283F85D20FB6800221A66FB687A68D4
:105370001A64FB687A88A3F84620FB687A88A3F849
:105380004420FB68BA689A63FB687A88DA87FB680E
:105390007A889A87FB680022DA64FB6800221A6523
:1053A000FB68DB68B3F5E06F05D8FB68B3F84630FF
:1053B0009BB2012B08D9FB681B68FA681268526817
:1053C00022F480525A6007E0FB681B68FA68126892
:1053D000526842F480525A60FB681B681B6803F0F5
:1053E0004003402B07D0FB681B68FA6812681268FC
:1053F00042F040021A60FB68DB68B3F5E06F75D9D4
:10540000FB685B68002B04D0FB68DB8F9BB2012B31
:1054100060D1FB681B68BA681288DA60BB68023327
:10542000BB60FB68DB8F9BB2013B9AB2FB68DA87FB
:1054300050E07B6A002B1CD0FB68DB8F9BB2002BFB
:1054400017D0FB681B689B6803F00203022B10D186
:10545000FB681B68BA681288DA60BB680233BB60FD
:10546000FB68DB8F9BB2013B9AB2FB68DA870023B3
:105470007B62FB68B3F846309BB2002B1AD0FB6806
:105480001B689B6803F00103012B13D1FB681B68A9
:10549000DB689AB27B681A807B6802337B60FB68AA
:1054A000B3F846309BB2013B9AB2FB68A3F84620A2
:1054B00001237B623B6BB3F1FF3F0BD0FBF718FB83
:1054C00002467B69D21A3B6B9A4203D3032387F8C7
:1054D0002330E8E0FB68DB8F9BB2002BA9D1FB688F
:1054E000B3F846309BB2002BA3D1CAE0FB685B68DF
:1054F000002B05D0FB68DB8F9BB2012B40F0B48002
:10550000FB68DB8F9BB2012B0FD9FB681B68BA6865
:105510001288DA60BB680233BB60FB68DB8F9BB22A
:10552000023B9AB2FB68DA879EE0FB681B6803F1D6
:105530000C02BB68591CB9601B781370FB68DB8FC9
:105540009BB2013B9AB2FB68DA878DE07B6A002B45
:1055500032D0FB68DB8F9BB2002B2DD0FB681B6821
:105560009B6803F00203022B26D1FB68DB8F9BB202
:10557000012B0FD9FB681B68BA681288DA60BB6818
:105580000233BB60FB68DB8F9BB2023B9AB2FB68C5
:10559000DA870FE0FB681B6803F10C02BB68591C3B
:1055A000B9601B781370FB68DB8F9BB2013B9AB22A
:1055B000FB68DA8700237B62FB68B3F846309BB256
:1055C000002B41D0FB681B689B6803F00103012B93
:1055D0003AD1FB68B3F846309BB2012B20D9FB6867
:1055E0001B68DB689AB27B681A807B6802337B6039
:1055F000FB68B3F846309BB2023B9AB2FB68A3F853
:105600004620FB68B3F846309BB2012B1AD8FB68E2
:105610001B68FA681268526842F480525A6011E0BE
:105620007B685A1C7A60FA6812680C321278D2B21F
:105630001A70FB68B3F846309BB2013B9AB2FB6824
:10564000A3F8462001237B623B6BB3F1FF3F0BD0F5
:10565000FBF74EFA02467B69D21A3B6B9A4203D3A0
:10566000032387F823301EE0FB68DB8F9BB2002BFF
:105670007FF46CAFFB68B3F846309BB2002B7FF42D
:1056800065AF7A69396BF86800F069FA0346002B58
:1056900002D0FB6820221A66FB681B6E002B02D02A
:1056A000012387F82330FB68012283F85D20FB6823
:1056B000002283F85C2097F8233018462837BD462F
:1056C00080BD000080B586B000AFF860B9601346B9
:1056D000FB800023FB75FB6893F85C30012B01D144
:1056E0000223C0E0FB68012283F85C20FB6893F88A
:1056F0005D30DBB2012B02D00223FB75AEE0BB684C
:10570000002B02D0FB88002B02D10123FB75A5E002
:10571000FB68032283F85D20FB6800221A66FB68A1
:10572000BA689A63FB68FA889A87FB68FA88DA870E
:10573000FB6800221A64FB6800221A65FB680022DD
:10574000DA64FB680022A3F84420FB680022A3F877
:105750004620FB689B68B3F5004F07D1FB681B68C8
:10576000FA681268126842F480421A60FB685B6D46
:105770003F4A1A63FB685B6D3E4ADA62FB685B6D09
:105780003D4A5A63FB685B6D00229A63FB681B68A5
:10579000FA681268526822F480425A60FB68DB683B
:1057A000B3F5E06F2DD8FB685B6D9B69B3F5806F37
:1057B00027D1FB68DB8F9BB203F00103002B0FD1D5
:1057C000FB681B68FA681268526822F480425A60CB
:1057D000FB68DB8F9BB25B089AB2FB68DA8710E04C
:1057E000FB681B68FA681268526842F480425A608B
:1057F000FB68DB8F9BB25B089BB201339AB2FB68FC
:10580000DA87FB68586DFB689B6B1946FB681B6861
:105810000C331A46FB68DB8F9BB2FCF7F9FAFB6886
:105820001B681B6803F04003402B07D0FB681B6814
:10583000FA681268126842F040021A60FB681B683E
:10584000FA681268526842F020025A60FB681B68CE
:10585000FA681268526842F002025A60FB6800223D
:1058600083F85C20FB7D18461837BD4680BD00BF1D
:105870004F590008A55800086B59000880B483B040
:1058800000AF786000BF0C37BD465DF8047B704701
:1058900080B483B000AF786000BF0C37BD465DF8C0
:1058A000047B704780B586B000AF78607B689B6AE8
:1058B0007B6100233B61FBF71BF938617B681B6848
:1058C0001B6803F02003202B3BD07B691B687A699F
:1058D0001268526822F020025A607B691B687A695C
:1058E0001268526822F002025A603A6964217869AB
:1058F00000F035F90346002B05D07B691B6E43F0A1
:1059000020027B691A667B699B68002B0AD1002301
:10591000FB607B691B68DB68FB607B691B689B68BD
:10592000FB60FB687B690022DA877B69012283F8D0
:105930005D207B691B6E002B03D07869FFF7A8FF01
:1059400002E0786902F092FE1837BD4680BD80B54E
:1059500084B000AF78607B689B6AFB60F868FFF7F3
:105960008DFF00BF1037BD4680BD80B584B000AF4D
:1059700078607B689B6AFB60FB681B68FA6812684A
:10598000526822F003025A60FB681B6E43F010025B
:10599000FB681A66FB68012283F85D20F868FFF750
:1059A00077FF00BF1037BD4680BD80B584B000AF23
:1059B000F860B9607A603B604DE03B68B3F1FF3F4F
:1059C00049D03B68002B07D0FBF792F80246BB6931
:1059D000D21A3B689A423ED3FB681B68FA68126889
:1059E000526822F0E0025A60FB685B68B3F5827F80
:1059F00011D1FB689B68B3F5004F04D0FB689B682E
:105A0000B3F5806F07D1FB681B68FA6812681268EB
:105A100022F040021A60FB689B6AB3F5005F10D168
:105A2000FB681A68FB681B6819684DF6FF730B402A
:105A30001360FB681B68FA681268126842F400522F
:105A40001A60FB68012283F85D20FB68002283F85E
:105A50005C2003230EE0FB681B689A68BB681A4051
:105A6000BB689A4201D1012200E000227B689A4281
:105A7000A3D1002318461037BD4680BD80B586B03F
:105A800000AFF860B9607A603B605BE0BB68B3F57B
:105A9000C06F09D17B68002B06D1FB681B680C33F3
:105AA0001B78DBB2FB75FB7D3B68B3F1FF3F49D050
:105AB0003B68002B07D0FBF71BF802463B6AD21A63
:105AC0003B689A423ED3FB681B68FA6812685268CA
:105AD00022F0E0025A60FB685B68B3F5827F11D167
